{
  "_format": "hh-sol-artifact-1",
  "contractName": "JournyLog",
  "sourceName": "contracts/JournyLog.sol",
  "abi": [
    {
      "inputs": [],
      "stateMutability": "nonpayable",
      "type": "constructor"
    },
    {
      "inputs": [],
      "name": "EnforcedPause",
      "type": "error"
    },
    {
      "inputs": [],
      "name": "ExpectedPause",
      "type": "error"
    },
    {
      "inputs": [
        {
          "internalType": "address",
          "name": "owner",
          "type": "address"
        }
      ],
      "name": "OwnableInvalidOwner",
      "type": "error"
    },
    {
      "inputs": [
        {
          "internalType": "address",
          "name": "account",
          "type": "address"
        }
      ],
      "name": "OwnableUnauthorizedAccount",
      "type": "error"
    },
    {
      "inputs": [],
      "name": "ReentrancyGuardReentrantCall",
      "type": "error"
    },
    {
      "anonymous": false,
      "inputs": [
        {
          "indexed": true,
          "internalType": "address",
          "name": "user",
          "type": "address"
        },
        {
          "indexed": false,
          "internalType": "string",
          "name": "cid",
          "type": "string"
        },
        {
          "indexed": false,
          "internalType": "uint256",
          "name": "timestamp",
          "type": "uint256"
        },
        {
          "indexed": false,
          "internalType": "uint16",
          "name": "streak",
          "type": "uint16"
        }
      ],
      "name": "EntryLogged",
      "type": "event"
    },
    {
      "anonymous": false,
      "inputs": [
        {
          "indexed": true,
          "internalType": "address",
          "name": "previousOwner",
          "type": "address"
        },
        {
          "indexed": true,
          "internalType": "address",
          "name": "newOwner",
          "type": "address"
        }
      ],
      "name": "OwnershipTransferred",
      "type": "event"
    },
    {
      "anonymous": false,
      "inputs": [
        {
          "indexed": false,
          "internalType": "address",
          "name": "account",
          "type": "address"
        }
      ],
      "name": "Paused",
      "type": "event"
    },
    {
      "anonymous": false,
      "inputs": [
        {
          "indexed": false,
          "internalType": "address",
          "name": "account",
          "type": "address"
        }
      ],
      "name": "Unpaused",
      "type": "event"
    },
    {
      "inputs": [
        {
          "internalType": "address",
          "name": "",
          "type": "address"
        }
      ],
      "name": "currentStreak",
      "outputs": [
        {
          "internalType": "uint16",
          "name": "",
          "type": "uint16"
        }
      ],
      "stateMutability": "view",
      "type": "function"
    },
    {
      "inputs": [
        {
          "internalType": "address",
          "name": "_user",
          "type": "address"
        },
        {
          "internalType": "uint256",
          "name": "_index",
          "type": "uint256"
        }
      ],
      "name": "getEntry",
      "outputs": [
        {
          "internalType": "string",
          "name": "",
          "type": "string"
        }
      ],
      "stateMutability": "view",
      "type": "function"
    },
    {
      "inputs": [
        {
          "internalType": "address",
          "name": "_user",
          "type": "address"
        }
      ],
      "name": "getEntryCount",
      "outputs": [
        {
          "internalType": "uint256",
          "name": "",
          "type": "uint256"
        }
      ],
      "stateMutability": "view",
      "type": "function"
    },
    {
      "inputs": [
        {
          "internalType": "address",
          "name": "_user",
          "type": "address"
        }
      ],
      "name": "isEligibleForClanker",
      "outputs": [
        {
          "internalType": "bool",
          "name": "",
          "type": "bool"
        }
      ],
      "stateMutability": "view",
      "type": "function"
    },
    {
      "inputs": [
        {
          "internalType": "address",
          "name": "",
          "type": "address"
        }
      ],
      "name": "lastEntryTimestamp",
      "outputs": [
        {
          "internalType": "uint32",
          "name": "",
          "type": "uint32"
        }
      ],
      "stateMutability": "view",
      "type": "function"
    },
    {
      "inputs": [
        {
          "internalType": "string",
          "name": "_cid",
          "type": "string"
        }
      ],
      "name": "logEntry",
      "outputs": [],
      "stateMutability": "nonpayable",
      "type": "function"
    },
    {
      "inputs": [],
      "name": "owner",
      "outputs": [
        {
          "internalType": "address",
          "name": "",
          "type": "address"
        }
      ],
      "stateMutability": "view",
      "type": "function"
    },
    {
      "inputs": [],
      "name": "pause",
      "outputs": [],
      "stateMutability": "nonpayable",
      "type": "function"
    },
    {
      "inputs": [],
      "name": "paused",
      "outputs": [
        {
          "internalType": "bool",
          "name": "",
          "type": "bool"
        }
      ],
      "stateMutability": "view",
      "type": "function"
    },
    {
      "inputs": [],
      "name": "renounceOwnership",
      "outputs": [],
      "stateMutability": "nonpayable",
      "type": "function"
    },
    {
      "inputs": [
        {
          "internalType": "address",
          "name": "newOwner",
          "type": "address"
        }
      ],
      "name": "transferOwnership",
      "outputs": [],
      "stateMutability": "nonpayable",
      "type": "function"
    },
    {
      "inputs": [],
      "name": "unpause",
      "outputs": [],
      "stateMutability": "nonpayable",
      "type": "function"
    }
  ],
  "bytecode": "0x608060405234801561001057600080fd5b506001600055338061003c57604051631e4fbdf760e01b81526000600482015260240160405180910390fd5b6100458161004b565b506100a5565b600180546001600160a01b03838116610100818102610100600160a81b031985161790945560405193909204169182907f8be0079c531659141344cd1fd0a4f28419497f9722a3daafe3b4186f6b6457e090600090a35050565b610ad7806100b46000396000f3fe608060405234801561001057600080fd5b50600436106100b45760003560e01c80638da5cb5b116100715780638da5cb5b14610139578063b7a01a6a14610162578063b8a740e01461019d578063c5c9bd25146101bd578063df439197146101f4578063f2fde38b1461022757600080fd5b80633f4ba83a146100b95780635c45f739146100c35780635c975abb146100ff5780636c7148e514610116578063715018a6146101295780638456cb5914610131575b600080fd5b6100c161023a565b005b6100e76100d1366004610791565b60046020526000908152604090205461ffff1681565b60405161ffff90911681526020015b60405180910390f35b60015460ff165b60405190151581526020016100f6565b6100c16101243660046107b3565b61024c565b6100c1610464565b6100c1610476565b60015461010090046001600160a01b03166040516001600160a01b0390911681526020016100f6565b610188610170366004610791565b60036020526000908152604090205463ffffffff1681565b60405163ffffffff90911681526020016100f6565b6101b06101ab366004610825565b610486565b6040516100f6919061084f565b6101e66101cb366004610791565b6001600160a01b031660009081526002602052604090205490565b6040519081526020016100f6565b610106610202366004610791565b6001600160a01b0316600090815260046020526040902054601e61ffff909116101590565b6100c1610235366004610791565b6105ac565b6102426105ea565b61024a61061d565b565b61025461066f565b61025c610699565b806102a45760405162461bcd60e51b81526020600482015260136024820152724349442063616e6e6f7420626520656d70747960681b60448201526064015b60405180910390fd5b3360008181526003602052604081205463ffffffff1690429082156102d8576102d363ffffffff8416836108b3565b6102db565b60005b90508263ffffffff16600003610314576001600160a01b0384166000908152600460205260409020805461ffff191660011790556103a6565b6201518081106103a65762015180811015801561033457506202a3008111155b15610381576001600160a01b0384166000908152600460205260408120805461ffff1691610361836108c6565b91906101000a81548161ffff021916908361ffff160217905550506103a6565b6001600160a01b0384166000908152600460205260409020805461ffff191660011790555b6001600160a01b0384166000908152600260209081526040822080546001810182559083529120016103d9868883610986565b506001600160a01b0384166000818152600360209081526040808320805463ffffffff191663ffffffff88161790556004909152908190205490517f670483f64c4528cae02440ce5f83b59ac8bf27ecb0a6dafafc72823f992827a19161044a918a918a91889161ffff1690610a47565b60405180910390a2505050506104606001600055565b5050565b61046c6105ea565b61024a60006106bd565b61047e6105ea565b61024a610717565b6001600160a01b03821660009081526002602052604090205460609082106104e65760405162461bcd60e51b8152602060048201526013602482015272496e646578206f7574206f6620626f756e647360681b604482015260640161029b565b6001600160a01b038316600090815260026020526040902080548390811061051057610510610a8b565b906000526020600020018054610525906108fd565b80601f0160208091040260200160405190810160405280929190818152602001828054610551906108fd565b801561059e5780601f106105735761010080835404028352916020019161059e565b820191906000526020600020905b81548152906001019060200180831161058157829003601f168201915b505050505090505b92915050565b6105b46105ea565b6001600160a01b0381166105de57604051631e4fbdf760e01b81526000600482015260240161029b565b6105e7816106bd565b50565b6001546001600160a01b0361010090910416331461024a5760405163118cdaa760e01b815233600482015260240161029b565b610625610752565b6001805460ff191690557f5db9ee0a495bf2e6ff9c91a7834c1ba4fdd244a5e8aa4e537bd38aeae4b073aa335b6040516001600160a01b03909116815260200160405180910390a1565b60026000540361069257604051633ee5aeb560e01b815260040160405180910390fd5b6002600055565b60015460ff161561024a5760405163d93c066560e01b815260040160405180910390fd5b600180546001600160a01b03838116610100818102610100600160a81b031985161790945560405193909204169182907f8be0079c531659141344cd1fd0a4f28419497f9722a3daafe3b4186f6b6457e090600090a35050565b61071f610699565b6001805460ff1916811790557f62e78cea01bee320cd4e420270b5ea74000d11b0c9f74754ebdbfc544b05a25833610652565b60015460ff1661024a57604051638dfc202b60e01b815260040160405180910390fd5b80356001600160a01b038116811461078c57600080fd5b919050565b6000602082840312156107a357600080fd5b6107ac82610775565b9392505050565b600080602083850312156107c657600080fd5b823567ffffffffffffffff808211156107de57600080fd5b818501915085601f8301126107f257600080fd5b81358181111561080157600080fd5b86602082850101111561081357600080fd5b60209290920196919550909350505050565b6000806040838503121561083857600080fd5b61084183610775565b946020939093013593505050565b600060208083528351808285015260005b8181101561087c57858101830151858201604001528201610860565b506000604082860101526040601f19601f8301168501019250505092915050565b634e487b7160e01b600052601160045260246000fd5b818103818111156105a6576105a661089d565b600061ffff8083168181036108dd576108dd61089d565b6001019392505050565b634e487b7160e01b600052604160045260246000fd5b600181811c9082168061091157607f821691505b60208210810361093157634e487b7160e01b600052602260045260246000fd5b50919050565b601f82111561098157600081815260208120601f850160051c8101602086101561095e5750805b601f850160051c820191505b8181101561097d5782815560010161096a565b5050505b505050565b67ffffffffffffffff83111561099e5761099e6108e7565b6109b2836109ac83546108fd565b83610937565b6000601f8411600181146109e657600085156109ce5750838201355b600019600387901b1c1916600186901b178355610a40565b600083815260209020601f19861690835b82811015610a1757868501358255602094850194600190920191016109f7565b5086821015610a345760001960f88860031b161c19848701351681555b505060018560011b0183555b5050505050565b606081528360608201528385608083013760006080858301015260006080601f19601f870116830101905083602083015261ffff8316604083015295945050505050565b634e487b7160e01b600052603260045260246000fdfea2646970667358221220520fb8efd113dd69c8db2aecb760887d9997cedb5f724b5d2e0dddcee809d89564736f6c63430008140033",
  "linkReferences": {},
  "deployedLinkReferences": {}
}